{
  "contractName": "Trade",
  "abi": [
    {
      "payable": true,
      "stateMutability": "payable",
      "type": "fallback"
    },
    {
      "anonymous": false,
      "inputs": [
        {
          "indexed": false,
          "name": "seller",
          "type": "string"
        },
        {
          "indexed": false,
          "name": "buyer",
          "type": "string"
        },
        {
          "indexed": false,
          "name": "item",
          "type": "string"
        },
        {
          "indexed": false,
          "name": "number",
          "type": "uint256"
        },
        {
          "indexed": false,
          "name": "price",
          "type": "uint256"
        },
        {
          "indexed": false,
          "name": "total",
          "type": "uint256"
        },
        {
          "indexed": false,
          "name": "seller_addr",
          "type": "address"
        }
      ],
      "name": "showTrade",
      "type": "event"
    },
    {
      "anonymous": false,
      "inputs": [
        {
          "indexed": false,
          "name": "single_index",
          "type": "uint256"
        }
      ],
      "name": "showTradeIndex",
      "type": "event"
    },
    {
      "anonymous": false,
      "inputs": [
        {
          "indexed": false,
          "name": "sender",
          "type": "address"
        },
        {
          "indexed": false,
          "name": "data",
          "type": "bytes"
        }
      ],
      "name": "showBuy",
      "type": "event"
    },
    {
      "constant": false,
      "inputs": [],
      "name": "setBuy",
      "outputs": [
        {
          "name": "",
          "type": "bool"
        }
      ],
      "payable": true,
      "stateMutability": "payable",
      "type": "function"
    },
    {
      "constant": true,
      "inputs": [],
      "name": "getContractAddress",
      "outputs": [
        {
          "name": "",
          "type": "address"
        }
      ],
      "payable": false,
      "stateMutability": "view",
      "type": "function"
    },
    {
      "constant": false,
      "inputs": [
        {
          "name": "tradeIndex",
          "type": "uint256"
        }
      ],
      "name": "confirmTrade",
      "outputs": [
        {
          "name": "",
          "type": "bool"
        }
      ],
      "payable": false,
      "stateMutability": "nonpayable",
      "type": "function"
    },
    {
      "constant": false,
      "inputs": [
        {
          "name": "seller_addr",
          "type": "address"
        }
      ],
      "name": "confirmTradeByAddress",
      "outputs": [
        {
          "name": "",
          "type": "bool"
        }
      ],
      "payable": false,
      "stateMutability": "nonpayable",
      "type": "function"
    },
    {
      "constant": false,
      "inputs": [
        {
          "name": "_seller",
          "type": "string"
        },
        {
          "name": "_buyer",
          "type": "string"
        },
        {
          "name": "_item",
          "type": "string"
        },
        {
          "name": "_number",
          "type": "uint256"
        },
        {
          "name": "_price",
          "type": "uint256"
        },
        {
          "name": "_total",
          "type": "uint256"
        },
        {
          "name": "_receiver",
          "type": "address"
        }
      ],
      "name": "setTrade",
      "outputs": [
        {
          "name": "",
          "type": "bool"
        }
      ],
      "payable": true,
      "stateMutability": "payable",
      "type": "function"
    },
    {
      "constant": true,
      "inputs": [
        {
          "name": "tradeIndex",
          "type": "uint256"
        }
      ],
      "name": "getTrade",
      "outputs": [
        {
          "name": "",
          "type": "string"
        },
        {
          "name": "",
          "type": "string"
        },
        {
          "name": "",
          "type": "string"
        },
        {
          "name": "",
          "type": "uint256"
        },
        {
          "name": "",
          "type": "uint256"
        },
        {
          "name": "",
          "type": "uint256"
        }
      ],
      "payable": false,
      "stateMutability": "view",
      "type": "function"
    },
    {
      "constant": true,
      "inputs": [
        {
          "name": "tradeIndex",
          "type": "uint256"
        }
      ],
      "name": "getSellerAddress",
      "outputs": [
        {
          "name": "",
          "type": "address"
        }
      ],
      "payable": false,
      "stateMutability": "view",
      "type": "function"
    },
    {
      "constant": true,
      "inputs": [],
      "name": "getCurrentTradeIndex",
      "outputs": [
        {
          "name": "",
          "type": "uint256"
        }
      ],
      "payable": false,
      "stateMutability": "view",
      "type": "function"
    }
  ],
  "bytecode": "0x6060604052341561000f57600080fd5b610e948061001e6000396000f30060606040526004361061008e576000357c0100000000000000000000000000000000000000000000000000000000900463ffffffff1680632db25e051461009057806332a2c5d014610219578063709db4331461026e5780639ec0507f146102bf578063a675364d146102fa578063b285c7871461035d578063b3310ba314610487578063e2437408146104b0575b005b341561009b57600080fd5b6100b160048080359060200190919050506104d2565b6040518080602001806020018060200187815260200186815260200185815260200184810384528a818151815260200191508051906020019080838360005b8381101561010b5780820151818401526020810190506100f0565b50505050905090810190601f1680156101385780820380516001836020036101000a031916815260200191505b50848103835289818151815260200191508051906020019080838360005b83811015610171578082015181840152602081019050610156565b50505050905090810190601f16801561019e5780820380516001836020036101000a031916815260200191505b50848103825288818151815260200191508051906020019080838360005b838110156101d75780820151818401526020810190506101bc565b50505050905090810190601f1680156102045780820380516001836020036101000a031916815260200191505b50995050505050505050505060405180910390f35b341561022457600080fd5b61022c6107af565b604051808273ffffffffffffffffffffffffffffffffffffffff1673ffffffffffffffffffffffffffffffffffffffff16815260200191505060405180910390f35b341561027957600080fd5b6102a5600480803573ffffffffffffffffffffffffffffffffffffffff169060200190919050506107b7565b604051808215151515815260200191505060405180910390f35b34156102ca57600080fd5b6102e0600480803590602001909190505061080a565b604051808215151515815260200191505060405180910390f35b341561030557600080fd5b61031b6004808035906020019091905050610893565b604051808273ffffffffffffffffffffffffffffffffffffffff1673ffffffffffffffffffffffffffffffffffffffff16815260200191505060405180910390f35b61046d600480803590602001908201803590602001908080601f0160208091040260200160405190810160405280939291908181526020018383808284378201915050505050509190803590602001908201803590602001908080601f0160208091040260200160405190810160405280939291908181526020018383808284378201915050505050509190803590602001908201803590602001908080601f0160208091040260200160405190810160405280939291908181526020018383808284378201915050505050509190803590602001909190803590602001909190803590602001909190803573ffffffffffffffffffffffffffffffffffffffff16906020019091905050610b25565b604051808215151515815260200191505060405180910390f35b341561049257600080fd5b61049a610c9d565b6040518082815260200191505060405180910390f35b6104b8610ca6565b604051808215151515815260200191505060405180910390f35b6104da610d35565b6104e2610d35565b6104ea610d35565b60008060006104f7610d49565b6001600089815260200190815260200160002060e06040519081016040529081600082018054600181600116156101000203166002900480601f0160208091040260200160405190810160405280929190818152602001828054600181600116156101000203166002900480156105af5780601f10610584576101008083540402835291602001916105af565b820191906000526020600020905b81548152906001019060200180831161059257829003601f168201915b50505050508152602001600182018054600181600116156101000203166002900480601f0160208091040260200160405190810160405280929190818152602001828054600181600116156101000203166002900480156106515780601f1061062657610100808354040283529160200191610651565b820191906000526020600020905b81548152906001019060200180831161063457829003601f168201915b50505050508152602001600282018054600181600116156101000203166002900480601f0160208091040260200160405190810160405280929190818152602001828054600181600116156101000203166002900480156106f35780601f106106c8576101008083540402835291602001916106f3565b820191906000526020600020905b8154815290600101906020018083116106d657829003601f168201915b505050505081526020016003820154815260200160048201548152602001600582015481526020016006820160009054906101000a900473ffffffffffffffffffffffffffffffffffffffff1673ffffffffffffffffffffffffffffffffffffffff1673ffffffffffffffffffffffffffffffffffffffff16815250509050806000015181602001518260400151836060015184608001518560a001518595508494508393509650965096509650965096505091939550919395565b600030905090565b60008173ffffffffffffffffffffffffffffffffffffffff166108fc670de0b6b3a76400009081150290604051600060405180830381858888f19350505050151561080157600080fd5b60019050919050565b60006001600083815260200190815260200160002060060160009054906101000a900473ffffffffffffffffffffffffffffffffffffffff1673ffffffffffffffffffffffffffffffffffffffff166108fc670de0b6b3a76400009081150290604051600060405180830381858888f19350505050151561088a57600080fd5b60019050919050565b600061089d610d49565b6001600084815260200190815260200160002060e06040519081016040529081600082018054600181600116156101000203166002900480601f0160208091040260200160405190810160405280929190818152602001828054600181600116156101000203166002900480156109555780601f1061092a57610100808354040283529160200191610955565b820191906000526020600020905b81548152906001019060200180831161093857829003601f168201915b50505050508152602001600182018054600181600116156101000203166002900480601f0160208091040260200160405190810160405280929190818152602001828054600181600116156101000203166002900480156109f75780601f106109cc576101008083540402835291602001916109f7565b820191906000526020600020905b8154815290600101906020018083116109da57829003601f168201915b50505050508152602001600282018054600181600116156101000203166002900480601f016020809104026020016040519081016040528092919081815260200182805460018160011615610100020316600290048015610a995780601f10610a6e57610100808354040283529160200191610a99565b820191906000526020600020905b815481529060010190602001808311610a7c57829003601f168201915b505050505081526020016003820154815260200160048201548152602001600582015481526020016006820160009054906101000a900473ffffffffffffffffffffffffffffffffffffffff1673ffffffffffffffffffffffffffffffffffffffff1673ffffffffffffffffffffffffffffffffffffffff168152505090508060c00151915050919050565b600060e0604051908101604052808981526020018881526020018781526020018681526020018581526020018481526020018373ffffffffffffffffffffffffffffffffffffffff1681525060016000805481526020019081526020016000206000820151816000019080519060200190610ba1929190610daf565b506020820151816001019080519060200190610bbe929190610daf565b506040820151816002019080519060200190610bdb929190610daf565b50606082015181600301556080820151816004015560a0820151816005015560c08201518160060160006101000a81548173ffffffffffffffffffffffffffffffffffffffff021916908373ffffffffffffffffffffffffffffffffffffffff1602179055509050507f9bddd5ca06683e254db85f817727ba7f63ef75ff4ca2fd222f9a28bb75af3d876000546040518082815260200191505060405180910390a1600080815480929190600101919050555060019050979650505050505050565b60008054905090565b60007fb90e17f28f9b0902f355f8e002b153754040f584f55f02b9909be6507e2f1a3833600036604051808473ffffffffffffffffffffffffffffffffffffffff1673ffffffffffffffffffffffffffffffffffffffff168152602001806020018281038252848482818152602001925080828437820191505094505050505060405180910390a16001905090565b602060405190810160405280600081525090565b60e060405190810160405280610d5d610e2f565b8152602001610d6a610e2f565b8152602001610d77610e2f565b8152602001600081526020016000815260200160008152602001600073ffffffffffffffffffffffffffffffffffffffff1681525090565b828054600181600116156101000203166002900490600052602060002090601f016020900481019282601f10610df057805160ff1916838001178555610e1e565b82800160010185558215610e1e579182015b82811115610e1d578251825591602001919060010190610e02565b5b509050610e2b9190610e43565b5090565b602060405190810160405280600081525090565b610e6591905b80821115610e61576000816000905550600101610e49565b5090565b905600a165627a7a723058205c470804c0c4b158b1152f495cbc6a07a9a8d3b73c33a69760f377d96c7764940029",
  "source": "pragma solidity ^0.4.2;\r\n\r\nimport \"./SafeMath.sol\";\r\n\r\ncontract Trade is SafeMath {\r\n    \r\n    \r\n    struct SingleTrade {\r\n        string seller;\r\n        string buyer;\r\n        string item;\r\n        uint number;\r\n        uint price;\r\n        uint total;\r\n        address seller_addr;\r\n    }\r\n\r\n    uint totalTrades;\r\n    mapping(uint => SingleTrade) TradeList;\r\n\r\n    event showTrade(\r\n        string seller,\r\n        string buyer,\r\n        string item,\r\n        uint number,\r\n        uint price,\r\n        uint total,\r\n        address seller_addr\r\n    );\r\n\r\n    event showTradeIndex(\r\n        // 交易在合约记录中的编号，返回后方便用户确认付款\r\n        uint single_index\r\n    );\r\n\r\n    event showBuy(\r\n        address sender,\r\n        bytes data\r\n    );\r\n\r\n    function () payable public{\r\n        \r\n    } \r\n\r\n    function setBuy() payable public returns (bool) {\r\n        emit showBuy(msg.sender, msg.data);\r\n        return(true);\r\n    }\r\n    \r\n    function getContractAddress() public view returns (address) {\r\n        return(address(this));\r\n    }\r\n\r\n    function confirmTrade(uint tradeIndex) public returns (bool) {\r\n        address(TradeList[tradeIndex].seller_addr).transfer(1 ether);\r\n        return(true);\r\n    }\r\n\r\n    function confirmTradeByAddress(address seller_addr) public returns (bool) {\r\n        address(seller_addr).transfer(1 ether);\r\n        return(true);\r\n    }\r\n    \r\n    function setTrade(\r\n        string _seller, string _buyer, string _item, uint _number, uint _price, uint _total, address _receiver)\r\n        payable public returns (bool){\r\n        \r\n        // seller = _seller;\r\n        // buyer = _buyer;\r\n        // item = _item;\r\n        // number = _number;\r\n        // price = _price;\r\n        // total = safeMul(number, price);\r\n        // seller_addr = _receiver;\r\n        // if (address(msg.sender).balance < total) {\r\n        //     return;\r\n        // } else {\r\n        //   address(_receiver).transfer(total);   \r\n        // }\r\n        // emit showTrade(_seller, _buyer, _item, _number, _price, _total);\r\n        TradeList[totalTrades] = SingleTrade(_seller, _buyer, _item,  _number, _price, _total, _receiver);\r\n        emit showTradeIndex(totalTrades);\r\n        \r\n        totalTrades++;\r\n\r\n        return(true);\r\n    }\r\n\r\n    function getTrade(uint tradeIndex) public view returns (string, string, string, uint, uint, uint) {\r\n        SingleTrade memory s = TradeList[tradeIndex];\r\n        return(s.seller, s.buyer, s.item, s.number, s.price, s.total);\r\n    }\r\n\r\n    function getSellerAddress(uint tradeIndex) public view returns (address) {\r\n        SingleTrade memory s = TradeList[tradeIndex];\r\n        return(s.seller_addr);\r\n    }\r\n\r\n    function getCurrentTradeIndex() public view returns (uint) {\r\n        return(totalTrades);\r\n    }\r\n\r\n\r\n}",
  "sourcePath": "E:\\Block Business\\Source\\ExpressWebpack\\contracts\\Trade.sol",
  "compiler": {
    "name": "solc",
    "version": "0.4.21+commit.dfe3193c.Emscripten.clang"
  },
  "schemaVersion": "2.0.0",
  "updatedAt": "2018-05-10T14:12:20.975Z"
}