{
  "contractName": "Trade",
  "abi": [
    {
      "anonymous": false,
      "inputs": [
        {
          "indexed": false,
          "name": "seller",
          "type": "string"
        },
        {
          "indexed": false,
          "name": "buyer",
          "type": "string"
        },
        {
          "indexed": false,
          "name": "item",
          "type": "string"
        },
        {
          "indexed": false,
          "name": "number",
          "type": "uint256"
        },
        {
          "indexed": false,
          "name": "price",
          "type": "uint256"
        },
        {
          "indexed": false,
          "name": "total",
          "type": "uint256"
        }
      ],
      "name": "showTrade",
      "type": "event"
    },
    {
      "constant": false,
      "inputs": [
        {
          "name": "_seller",
          "type": "string"
        },
        {
          "name": "_buyer",
          "type": "string"
        },
        {
          "name": "_item",
          "type": "string"
        },
        {
          "name": "_number",
          "type": "uint256"
        },
        {
          "name": "_price",
          "type": "uint256"
        },
        {
          "name": "_receiver",
          "type": "address"
        }
      ],
      "name": "setTrade",
      "outputs": [],
      "payable": false,
      "stateMutability": "nonpayable",
      "type": "function"
    },
    {
      "constant": true,
      "inputs": [],
      "name": "getTrade",
      "outputs": [
        {
          "name": "",
          "type": "string"
        },
        {
          "name": "",
          "type": "string"
        },
        {
          "name": "",
          "type": "string"
        },
        {
          "name": "",
          "type": "uint256"
        },
        {
          "name": "",
          "type": "uint256"
        },
        {
          "name": "",
          "type": "uint256"
        }
      ],
      "payable": false,
      "stateMutability": "view",
      "type": "function"
    }
  ],
  "bytecode": "0x6060604052341561000f57600080fd5b6108688061001e6000396000f30060606040526004361061004c576000357c0100000000000000000000000000000000000000000000000000000000900463ffffffff16806386bf92f7146100515780638f2be647146101cc575b600080fd5b341561005c57600080fd5b6100646102e0565b6040518080602001806020018060200187815260200186815260200185815260200184810384528a818151815260200191508051906020019080838360005b838110156100be5780820151818401526020810190506100a3565b50505050905090810190601f1680156100eb5780820380516001836020036101000a031916815260200191505b50848103835289818151815260200191508051906020019080838360005b83811015610124578082015181840152602081019050610109565b50505050905090810190601f1680156101515780820380516001836020036101000a031916815260200191505b50848103825288818151815260200191508051906020019080838360005b8381101561018a57808201518184015260208101905061016f565b50505050905090810190601f1680156101b75780820380516001836020036101000a031916815260200191505b50995050505050505050505060405180910390f35b34156101d757600080fd5b6102de600480803590602001908201803590602001908080601f0160208091040260200160405190810160405280939291908181526020018383808284378201915050505050509190803590602001908201803590602001908080601f0160208091040260200160405190810160405280939291908181526020018383808284378201915050505050509190803590602001908201803590602001908080601f0160208091040260200160405190810160405280939291908181526020018383808284378201915050505050509190803590602001909190803590602001909190803573ffffffffffffffffffffffffffffffffffffffff169060200190919050506104f3565b005b6102e8610783565b6102f0610783565b6102f8610783565b60008060008060016002600354600454600554858054600181600116156101000203166002900480601f0160208091040260200160405190810160405280929190818152602001828054600181600116156101000203166002900480156103a05780601f10610375576101008083540402835291602001916103a0565b820191906000526020600020905b81548152906001019060200180831161038357829003601f168201915b50505050509550848054600181600116156101000203166002900480601f01602080910402602001604051908101604052809291908181526020018280546001816001161561010002031660029004801561043c5780601f106104115761010080835404028352916020019161043c565b820191906000526020600020905b81548152906001019060200180831161041f57829003601f168201915b50505050509450838054600181600116156101000203166002900480601f0160208091040260200160405190810160405280929190818152602001828054600181600116156101000203166002900480156104d85780601f106104ad576101008083540402835291602001916104d8565b820191906000526020600020905b8154815290600101906020018083116104bb57829003601f168201915b50505050509350955095509550955095509550909192939495565b8560009080519060200190610509929190610797565b508460019080519060200190610520929190610797565b508360029080519060200190610537929190610797565b508260038190555081600481905550610554600354600454610750565b6005819055507fce347dddc96fb1386342db137b6b2d5f943c8aae1721e57f438b1497eac297ec6000600160026003546004546005546040518080602001806020018060200187815260200186815260200185815260200184810384528a81815460018160011615610100020316600290048152602001915080546001816001161561010002031660029004801561062d5780601f106106025761010080835404028352916020019161062d565b820191906000526020600020905b81548152906001019060200180831161061057829003601f168201915b50508481038352898181546001816001161561010002031660029004815260200191508054600181600116156101000203166002900480156106b05780601f10610685576101008083540402835291602001916106b0565b820191906000526020600020905b81548152906001019060200180831161069357829003601f168201915b50508481038252888181546001816001161561010002031660029004815260200191508054600181600116156101000203166002900480156107335780601f1061070857610100808354040283529160200191610733565b820191906000526020600020905b81548152906001019060200180831161071657829003601f168201915b5050995050505050505050505060405180910390a1505050505050565b60008082840290506000841480610771575082848281151561076e57fe5b04145b151561077957fe5b8091505092915050565b602060405190810160405280600081525090565b828054600181600116156101000203166002900490600052602060002090601f016020900481019282601f106107d857805160ff1916838001178555610806565b82800160010185558215610806579182015b828111156108055782518255916020019190600101906107ea565b5b5090506108139190610817565b5090565b61083991905b8082111561083557600081600090555060010161081d565b5090565b905600a165627a7a7230582012d27244ed2cfd557462fb856b409eda8a3bae3c9776a7b9be1c69d47335edc10029",
  "source": "pragma solidity ^0.4.2;\r\n\r\nimport \"./SafeMath.sol\";\r\n\r\ncontract Trade is SafeMath {\r\n    \r\n    string seller;\r\n    string buyer;\r\n    string item;\r\n    uint number;\r\n    uint price;\r\n    uint total;\r\n    address receiver;\r\n\r\n    event showTrade(\r\n        string seller,\r\n        string buyer,\r\n        string item,\r\n        uint number,\r\n        uint price,\r\n        uint total\r\n       \r\n    );\r\n\r\n    function setTrade(string _seller, string _buyer, string _item, uint _number, uint _price, address _receiver) public {\r\n        seller = _seller;\r\n        buyer = _buyer;\r\n        item = _item;\r\n        number = _number;\r\n        price = _price;\r\n        total = safeMul(number, price);\r\n        // if (address(msg.sender).balance < total) {\r\n        //     return;\r\n        // } else {\r\n        //     address(_receiver).transfer(total);\r\n       \r\n            \r\n        // }\r\n        emit showTrade(seller, buyer, item, number, price, total);\r\n    }\r\n\r\n    function getTrade() public view returns (string, string, string, uint, uint, uint) {\r\n        return (seller, buyer, item, number, price, total);\r\n    }\r\n\r\n\r\n}",
  "sourcePath": "E:\\Block Business\\Source\\ExpressWebpack\\contracts\\Trade.sol",
  "compiler": {
    "name": "solc",
    "version": "0.4.21+commit.dfe3193c.Emscripten.clang"
  },
  "schemaVersion": "2.0.0",
  "updatedAt": "2018-05-09T01:31:27.487Z"
}