{
  "contractName": "Trade",
  "abi": [
    {
      "payable": true,
      "stateMutability": "payable",
      "type": "fallback"
    },
    {
      "anonymous": false,
      "inputs": [
        {
          "indexed": false,
          "name": "seller",
          "type": "string"
        },
        {
          "indexed": false,
          "name": "buyer",
          "type": "string"
        },
        {
          "indexed": false,
          "name": "item",
          "type": "string"
        },
        {
          "indexed": false,
          "name": "number",
          "type": "uint256"
        },
        {
          "indexed": false,
          "name": "price",
          "type": "uint256"
        },
        {
          "indexed": false,
          "name": "total",
          "type": "uint256"
        }
      ],
      "name": "showTrade",
      "type": "event"
    },
    {
      "constant": true,
      "inputs": [],
      "name": "getContractAddress",
      "outputs": [
        {
          "name": "",
          "type": "address"
        }
      ],
      "payable": false,
      "stateMutability": "view",
      "type": "function"
    },
    {
      "constant": true,
      "inputs": [],
      "name": "getContractBalance",
      "outputs": [
        {
          "name": "",
          "type": "uint256"
        }
      ],
      "payable": false,
      "stateMutability": "view",
      "type": "function"
    },
    {
      "constant": false,
      "inputs": [
        {
          "name": "_seller",
          "type": "string"
        },
        {
          "name": "_buyer",
          "type": "string"
        },
        {
          "name": "_item",
          "type": "string"
        },
        {
          "name": "_number",
          "type": "uint256"
        },
        {
          "name": "_price",
          "type": "uint256"
        },
        {
          "name": "_receiver",
          "type": "address"
        }
      ],
      "name": "setTrade",
      "outputs": [],
      "payable": false,
      "stateMutability": "nonpayable",
      "type": "function"
    },
    {
      "constant": true,
      "inputs": [],
      "name": "getTrade",
      "outputs": [
        {
          "name": "",
          "type": "string"
        },
        {
          "name": "",
          "type": "string"
        },
        {
          "name": "",
          "type": "string"
        },
        {
          "name": "",
          "type": "uint256"
        },
        {
          "name": "",
          "type": "uint256"
        },
        {
          "name": "",
          "type": "uint256"
        }
      ],
      "payable": false,
      "stateMutability": "view",
      "type": "function"
    }
  ],
  "bytecode": "0x6060604052341561000f57600080fd5b6109208061001e6000396000f300606060405260043610610062576000357c0100000000000000000000000000000000000000000000000000000000900463ffffffff16806332a2c5d0146100645780636f9fb98a146100b957806386bf92f7146100e25780638f2be6471461025d575b005b341561006f57600080fd5b610077610371565b604051808273ffffffffffffffffffffffffffffffffffffffff1673ffffffffffffffffffffffffffffffffffffffff16815260200191505060405180910390f35b34156100c457600080fd5b6100cc610379565b6040518082815260200191505060405180910390f35b34156100ed57600080fd5b6100f5610398565b6040518080602001806020018060200187815260200186815260200185815260200184810384528a818151815260200191508051906020019080838360005b8381101561014f578082015181840152602081019050610134565b50505050905090810190601f16801561017c5780820380516001836020036101000a031916815260200191505b50848103835289818151815260200191508051906020019080838360005b838110156101b557808201518184015260208101905061019a565b50505050905090810190601f1680156101e25780820380516001836020036101000a031916815260200191505b50848103825288818151815260200191508051906020019080838360005b8381101561021b578082015181840152602081019050610200565b50505050905090810190601f1680156102485780820380516001836020036101000a031916815260200191505b50995050505050505050505060405180910390f35b341561026857600080fd5b61036f600480803590602001908201803590602001908080601f0160208091040260200160405190810160405280939291908181526020018383808284378201915050505050509190803590602001908201803590602001908080601f0160208091040260200160405190810160405280939291908181526020018383808284378201915050505050509190803590602001908201803590602001908080601f0160208091040260200160405190810160405280939291908181526020018383808284378201915050505050509190803590602001909190803590602001909190803573ffffffffffffffffffffffffffffffffffffffff169060200190919050506105ab565b005b600030905090565b60003073ffffffffffffffffffffffffffffffffffffffff1631905090565b6103a061083b565b6103a861083b565b6103b061083b565b60008060008060016002600354600454600554858054600181600116156101000203166002900480601f0160208091040260200160405190810160405280929190818152602001828054600181600116156101000203166002900480156104585780601f1061042d57610100808354040283529160200191610458565b820191906000526020600020905b81548152906001019060200180831161043b57829003601f168201915b50505050509550848054600181600116156101000203166002900480601f0160208091040260200160405190810160405280929190818152602001828054600181600116156101000203166002900480156104f45780601f106104c9576101008083540402835291602001916104f4565b820191906000526020600020905b8154815290600101906020018083116104d757829003601f168201915b50505050509450838054600181600116156101000203166002900480601f0160208091040260200160405190810160405280929190818152602001828054600181600116156101000203166002900480156105905780601f1061056557610100808354040283529160200191610590565b820191906000526020600020905b81548152906001019060200180831161057357829003601f168201915b50505050509350955095509550955095509550909192939495565b85600090805190602001906105c192919061084f565b5084600190805190602001906105d892919061084f565b5083600290805190602001906105ef92919061084f565b50826003819055508160048190555061060c600354600454610808565b6005819055507fce347dddc96fb1386342db137b6b2d5f943c8aae1721e57f438b1497eac297ec6000600160026003546004546005546040518080602001806020018060200187815260200186815260200185815260200184810384528a8181546001816001161561010002031660029004815260200191508054600181600116156101000203166002900480156106e55780601f106106ba576101008083540402835291602001916106e5565b820191906000526020600020905b8154815290600101906020018083116106c857829003601f168201915b50508481038352898181546001816001161561010002031660029004815260200191508054600181600116156101000203166002900480156107685780601f1061073d57610100808354040283529160200191610768565b820191906000526020600020905b81548152906001019060200180831161074b57829003601f168201915b50508481038252888181546001816001161561010002031660029004815260200191508054600181600116156101000203166002900480156107eb5780601f106107c0576101008083540402835291602001916107eb565b820191906000526020600020905b8154815290600101906020018083116107ce57829003601f168201915b5050995050505050505050505060405180910390a1505050505050565b60008082840290506000841480610829575082848281151561082657fe5b04145b151561083157fe5b8091505092915050565b602060405190810160405280600081525090565b828054600181600116156101000203166002900490600052602060002090601f016020900481019282601f1061089057805160ff19168380011785556108be565b828001600101855582156108be579182015b828111156108bd5782518255916020019190600101906108a2565b5b5090506108cb91906108cf565b5090565b6108f191905b808211156108ed5760008160009055506001016108d5565b5090565b905600a165627a7a72305820dfb8c75b198e059ef1f738571806809ed533b93f3fe45c73d6ad6496063b347d0029",
  "source": "pragma solidity ^0.4.2;\r\n\r\nimport \"./SafeMath.sol\";\r\n\r\ncontract Trade is SafeMath {\r\n    \r\n    string seller;\r\n    string buyer;\r\n    string item;\r\n    uint number;\r\n    uint price;\r\n    uint total;\r\n    address receiver;\r\n\r\n    event showTrade(\r\n        string seller,\r\n        string buyer,\r\n        string item,\r\n        uint number,\r\n        uint price,\r\n        uint total\r\n       \r\n    );\r\n\r\n    function () payable public{  \r\n    \r\n    }  \r\n    \r\n    function getContractAddress() public view returns (address) {\r\n        return(address(this));\r\n    }\r\n    \r\n    function getContractBalance() public view returns (uint) {\r\n        return(address(this).balance);\r\n    }\r\n\r\n    function setTrade(string _seller, string _buyer, string _item, uint _number, uint _price, address _receiver) public {\r\n        seller = _seller;\r\n        buyer = _buyer;\r\n        item = _item;\r\n        number = _number;\r\n        price = _price;\r\n        total = safeMul(number, price);\r\n        // if (address(msg.sender).balance < total) {\r\n        //     return;\r\n        // } else {\r\n        //     address(_receiver).transfer(total);\r\n       \r\n            \r\n        // }\r\n        emit showTrade(seller, buyer, item, number, price, total);\r\n    }\r\n\r\n    function getTrade() public view returns (string, string, string, uint, uint, uint) {\r\n        return (seller, buyer, item, number, price, total);\r\n    }\r\n\r\n\r\n}",
  "sourcePath": "E:\\Block Business\\Source\\ExpressWebpack\\contracts\\Trade.sol",
  "compiler": {
    "name": "solc",
    "version": "0.4.21+commit.dfe3193c.Emscripten.clang"
  },
  "schemaVersion": "2.0.0",
  "updatedAt": "2018-05-09T13:13:10.589Z"
}