{
  "contractName": "Trade",
  "abi": [
    {
      "anonymous": false,
      "inputs": [
        {
          "indexed": false,
          "name": "seller",
          "type": "string"
        },
        {
          "indexed": false,
          "name": "buyer",
          "type": "string"
        },
        {
          "indexed": false,
          "name": "item",
          "type": "string"
        },
        {
          "indexed": false,
          "name": "number",
          "type": "uint256"
        },
        {
          "indexed": false,
          "name": "price",
          "type": "uint256"
        },
        {
          "indexed": false,
          "name": "total",
          "type": "uint256"
        }
      ],
      "name": "showTrade",
      "type": "event"
    },
    {
      "constant": false,
      "inputs": [
        {
          "name": "_seller",
          "type": "string"
        },
        {
          "name": "_buyer",
          "type": "string"
        },
        {
          "name": "_item",
          "type": "string"
        },
        {
          "name": "_number",
          "type": "uint256"
        },
        {
          "name": "_price",
          "type": "uint256"
        }
      ],
      "name": "setTrade",
      "outputs": [],
      "payable": false,
      "stateMutability": "nonpayable",
      "type": "function"
    },
    {
      "constant": true,
      "inputs": [],
      "name": "getTrade",
      "outputs": [
        {
          "name": "",
          "type": "string"
        },
        {
          "name": "",
          "type": "string"
        },
        {
          "name": "",
          "type": "string"
        },
        {
          "name": "",
          "type": "uint256"
        },
        {
          "name": "",
          "type": "uint256"
        },
        {
          "name": "",
          "type": "uint256"
        }
      ],
      "payable": false,
      "stateMutability": "view",
      "type": "function"
    }
  ],
  "bytecode": "0x6060604052341561000f57600080fd5b6108488061001e6000396000f30060606040526004361061004c576000357c0100000000000000000000000000000000000000000000000000000000900463ffffffff16806323873dcf1461005157806386bf92f714610146575b600080fd5b341561005c57600080fd5b610144600480803590602001908201803590602001908080601f0160208091040260200160405190810160405280939291908181526020018383808284378201915050505050509190803590602001908201803590602001908080601f0160208091040260200160405190810160405280939291908181526020018383808284378201915050505050509190803590602001908201803590602001908080601f016020809104026020016040519081016040528093929190818152602001838380828437820191505050505050919080359060200190919080359060200190919050506102c1565b005b341561015157600080fd5b61015961051d565b6040518080602001806020018060200187815260200186815260200185815260200184810384528a818151815260200191508051906020019080838360005b838110156101b3578082015181840152602081019050610198565b50505050905090810190601f1680156101e05780820380516001836020036101000a031916815260200191505b50848103835289818151815260200191508051906020019080838360005b838110156102195780820151818401526020810190506101fe565b50505050905090810190601f1680156102465780820380516001836020036101000a031916815260200191505b50848103825288818151815260200191508051906020019080838360005b8381101561027f578082015181840152602081019050610264565b50505050905090810190601f1680156102ac5780820380516001836020036101000a031916815260200191505b50995050505050505050505060405180910390f35b84600090805190602001906102d7929190610763565b5083600190805190602001906102ee929190610763565b508260029080519060200190610305929190610763565b508160038190555080600481905550610322600354600454610730565b6005819055507fce347dddc96fb1386342db137b6b2d5f943c8aae1721e57f438b1497eac297ec6000600160026003546004546005546040518080602001806020018060200187815260200186815260200185815260200184810384528a8181546001816001161561010002031660029004815260200191508054600181600116156101000203166002900480156103fb5780601f106103d0576101008083540402835291602001916103fb565b820191906000526020600020905b8154815290600101906020018083116103de57829003601f168201915b505084810383528981815460018160011615610100020316600290048152602001915080546001816001161561010002031660029004801561047e5780601f106104535761010080835404028352916020019161047e565b820191906000526020600020905b81548152906001019060200180831161046157829003601f168201915b50508481038252888181546001816001161561010002031660029004815260200191508054600181600116156101000203166002900480156105015780601f106104d657610100808354040283529160200191610501565b820191906000526020600020905b8154815290600101906020018083116104e457829003601f168201915b5050995050505050505050505060405180910390a15050505050565b6105256107e3565b61052d6107e3565b6105356107e3565b60008060008060016002600354600454600554858054600181600116156101000203166002900480601f0160208091040260200160405190810160405280929190818152602001828054600181600116156101000203166002900480156105dd5780601f106105b2576101008083540402835291602001916105dd565b820191906000526020600020905b8154815290600101906020018083116105c057829003601f168201915b50505050509550848054600181600116156101000203166002900480601f0160208091040260200160405190810160405280929190818152602001828054600181600116156101000203166002900480156106795780601f1061064e57610100808354040283529160200191610679565b820191906000526020600020905b81548152906001019060200180831161065c57829003601f168201915b50505050509450838054600181600116156101000203166002900480601f0160208091040260200160405190810160405280929190818152602001828054600181600116156101000203166002900480156107155780601f106106ea57610100808354040283529160200191610715565b820191906000526020600020905b8154815290600101906020018083116106f857829003601f168201915b50505050509350955095509550955095509550909192939495565b60008082840290506000841480610751575082848281151561074e57fe5b04145b151561075957fe5b8091505092915050565b828054600181600116156101000203166002900490600052602060002090601f016020900481019282601f106107a457805160ff19168380011785556107d2565b828001600101855582156107d2579182015b828111156107d15782518255916020019190600101906107b6565b5b5090506107df91906107f7565b5090565b602060405190810160405280600081525090565b61081991905b808211156108155760008160009055506001016107fd565b5090565b905600a165627a7a72305820022f806172adc7f817faa321c6c0b940c7a6f7c32945ef5b08951aa2f04a32120029",
  "source": "pragma solidity ^0.4.2;\r\n\r\nimport \"./SafeMath.sol\";\r\n\r\ncontract Trade is SafeMath {\r\n    \r\n    string seller;\r\n    string buyer;\r\n    string item;\r\n    uint number;\r\n    uint price;\r\n    uint total;\r\n\r\n    event showTrade(\r\n        string seller,\r\n        string buyer,\r\n        string item,\r\n        uint number,\r\n        uint price,\r\n        uint total\r\n       \r\n    );\r\n\r\n    function setTrade(string _seller, string _buyer, string _item, uint _number, uint _price) public {\r\n        seller = _seller;\r\n        buyer = _buyer;\r\n        item = _item;\r\n        number = _number;\r\n        price = _price;\r\n        total = safeMul(number, price);\r\n        emit showTrade(seller, buyer, item, number, price, total);\r\n    }\r\n\r\n    function getTrade() public view returns (string, string, string, uint, uint, uint) {\r\n        return (seller, buyer, item, number, price, total);\r\n    }\r\n\r\n\r\n}",
  "sourcePath": "E:\\Project\\BlockBusiness\\ExpressWebpack\\contracts\\Trade.sol",
  "compiler": {
    "name": "solc",
    "version": "0.4.21+commit.dfe3193c.Emscripten.clang"
  },
  "schemaVersion": "2.0.0",
  "updatedAt": "2018-05-08T04:32:18.913Z"
}