{
  "contractName": "Trade",
  "abi": [
    {
      "anonymous": false,
      "inputs": [
        {
          "indexed": false,
          "name": "seller",
          "type": "string"
        },
        {
          "indexed": false,
          "name": "buyer",
          "type": "string"
        },
        {
          "indexed": false,
          "name": "item",
          "type": "string"
        },
        {
          "indexed": false,
          "name": "price",
          "type": "uint256"
        }
      ],
      "name": "showTrade",
      "type": "event"
    },
    {
      "constant": false,
      "inputs": [
        {
          "name": "_seller",
          "type": "string"
        },
        {
          "name": "_buyer",
          "type": "string"
        },
        {
          "name": "_item",
          "type": "string"
        },
        {
          "name": "_price",
          "type": "uint256"
        }
      ],
      "name": "setTrade",
      "outputs": [],
      "payable": false,
      "stateMutability": "nonpayable",
      "type": "function"
    },
    {
      "constant": true,
      "inputs": [],
      "name": "getTrade",
      "outputs": [
        {
          "name": "",
          "type": "string"
        },
        {
          "name": "",
          "type": "string"
        },
        {
          "name": "",
          "type": "string"
        },
        {
          "name": "",
          "type": "uint256"
        }
      ],
      "payable": false,
      "stateMutability": "view",
      "type": "function"
    }
  ],
  "bytecode": "0x6060604052341561000f57600080fd5b6107638061001e6000396000f30060606040526004361061004c576000357c0100000000000000000000000000000000000000000000000000000000900463ffffffff16806386bf92f714610051578063f2950d6b146101be575b600080fd5b341561005c57600080fd5b6100646102aa565b60405180806020018060200180602001858152602001848103845288818151815260200191508051906020019080838360005b838110156100b2578082015181840152602081019050610097565b50505050905090810190601f1680156100df5780820380516001836020036101000a031916815260200191505b50848103835287818151815260200191508051906020019080838360005b838110156101185780820151818401526020810190506100fd565b50505050905090810190601f1680156101455780820380516001836020036101000a031916815260200191505b50848103825286818151815260200191508051906020019080838360005b8381101561017e578082015181840152602081019050610163565b50505050905090810190601f1680156101ab5780820380516001836020036101000a031916815260200191505b5097505050505050505060405180910390f35b34156101c957600080fd5b6102a8600480803590602001908201803590602001908080601f0160208091040260200160405190810160405280939291908181526020018383808284378201915050505050509190803590602001908201803590602001908080601f0160208091040260200160405190810160405280939291908181526020018383808284378201915050505050509190803590602001908201803590602001908080601f016020809104026020016040519081016040528093929190818152602001838380828437820191505050505050919080359060200190919050506104ae565b005b6102b261067e565b6102ba61067e565b6102c261067e565b60008060016002600354838054600181600116156101000203166002900480601f0160208091040260200160405190810160405280929190818152602001828054600181600116156101000203166002900480156103615780601f1061033657610100808354040283529160200191610361565b820191906000526020600020905b81548152906001019060200180831161034457829003601f168201915b50505050509350828054600181600116156101000203166002900480601f0160208091040260200160405190810160405280929190818152602001828054600181600116156101000203166002900480156103fd5780601f106103d2576101008083540402835291602001916103fd565b820191906000526020600020905b8154815290600101906020018083116103e057829003601f168201915b50505050509250818054600181600116156101000203166002900480601f0160208091040260200160405190810160405280929190818152602001828054600181600116156101000203166002900480156104995780601f1061046e57610100808354040283529160200191610499565b820191906000526020600020905b81548152906001019060200180831161047c57829003601f168201915b50505050509150935093509350935090919293565b83600090805190602001906104c4929190610692565b5082600190805190602001906104db929190610692565b5081600290805190602001906104f2929190610692565b50806003819055507fabb594297997b41fcac5fcd4c978039d32572a582ce822796ffe946a8b5ab4388484848460405180806020018060200180602001858152602001848103845288818151815260200191508051906020019080838360005b8381101561056d578082015181840152602081019050610552565b50505050905090810190601f16801561059a5780820380516001836020036101000a031916815260200191505b50848103835287818151815260200191508051906020019080838360005b838110156105d35780820151818401526020810190506105b8565b50505050905090810190601f1680156106005780820380516001836020036101000a031916815260200191505b50848103825286818151815260200191508051906020019080838360005b8381101561063957808201518184015260208101905061061e565b50505050905090810190601f1680156106665780820380516001836020036101000a031916815260200191505b5097505050505050505060405180910390a150505050565b602060405190810160405280600081525090565b828054600181600116156101000203166002900490600052602060002090601f016020900481019282601f106106d357805160ff1916838001178555610701565b82800160010185558215610701579182015b828111156107005782518255916020019190600101906106e5565b5b50905061070e9190610712565b5090565b61073491905b80821115610730576000816000905550600101610718565b5090565b905600a165627a7a723058206d3c3917a042a4abd0c49eb11be4e4305bedaac327e2817ac905a3240a4e0ea90029",
  "source": "pragma solidity ^0.4.2;\r\n\r\ncontract Trade {\r\n    \r\n    string seller;\r\n    string buyer;\r\n\r\n    string item;\r\n    uint price;\r\n\r\n    event showTrade(\r\n        string seller,\r\n        string buyer,\r\n        string item,\r\n        uint price\r\n       \r\n    );\r\n\r\n    function setTrade(string _seller, string _buyer, string _item, uint _price) public {\r\n        seller = _seller;\r\n        buyer = _buyer;\r\n        item = _item;\r\n        price = _price;\r\n        emit showTrade(_seller, _buyer, _item, _price);\r\n    }\r\n\r\n    function getTrade() public constant returns (string, string, string, uint) {\r\n        return (seller, buyer, item, price);\r\n    }\r\n\r\n\r\n}",
  "sourcePath": "E:\\Project\\BlockBusiness\\ExpressWebpack\\contracts\\MyTrade.sol",
  "compiler": {
    "name": "solc",
    "version": "0.4.21+commit.dfe3193c.Emscripten.clang"
  },
  "schemaVersion": "2.0.0",
  "updatedAt": "2018-05-03T05:39:13.345Z"
}